:1000000000000320D1010000E9450000A1450000E7
:10001000A1450000A1450000A1450000A145000048
:10002000A1450000A1450000A1450000E9450000F0
:10003000E9450000A145000075590000795900000C
:10004000E9450000E9450000E9450000E9450000F8
:10005000E9450000E9450000E9450000E9450000E8
:10006000E9450000E9450000E9450000E9450000D8
:10007000E9450000E9450000E9450000E9450000C8
:10008000E9450000E9450000E9450000E9450000B8
:10009000E9450000E9450000E9450000E9450000A8
:1000A000E9450000E9450000E9450000E945000098
:1000B000E9450000E9450000E9450000E945000088
:1000C000E9450000E9450000E9450000E945000078
:1000D000E9450000E9450000E9450000E945000068
:1000E000E9450000E9450000E9450000E945000058
:1000F000E9450000E9450000E9450000E945000048
:10010000E9450000E9450000E9450000E945000037
:10011000E9450000854B0000E9450000E945000085
:10012000E9450000E9450000E9450000E945000017
:10013000E9450000E9450000E9450000E945000007
:10014000E9450000E9450000E9450000E9450000F7
:10015000E9450000E9450000E9450000E9450000E7
:10016000E9450000E9450000E9450000E9450000D7
:10017000E9450000E9450000E9450000E9450000C7
:10018000E9450000E9450000E9450000E9450000B7
:10019000E9450000E9450000E9450000E9450000A7
:1001A000E9450000E9450000E9450000E945000097
:1001B000E9450000E9450000E9450000E945000087
:1001C000E9450000E9450000E9450000E945000077
:1001D0005C4B4CF2205210B51A804DF628121A8052
:1001E00000BF00BF04F004FA574B4FF030621A60B2
:1001F000564A9A60564ADA60564B4FF470021A60BB
:10020000554B564A1A60564B1A78110703D51A787F
:1002100042F008021A70534B5349AA221A70534AEB
:10022000534B8B4204D252F8040F43F8040BF8E707
:10023000504B514900228B4202D243F8042BFAE77B
:100240004E494F4A002352F8230041F8230001335E
:10025000742BF8D14B4B4C4A802103F8011B93427D
:10026000FBD14A4B454A1A60494B8A221A70A3F5C2
:10027000805324225A70A0221A709A799207FCD5D2
:100280009A79D406FCD4434A937903F00C03082BE3
:10029000FAD1414B60221A7002331A78802AFCD1BD
:1002A0003C4B01221A715D225A719A799006FCD555
:1002B0009979384A4906FBD5384B394919600021EC
:1002C000596020231370937903F00C030C2BFAD19F
:1002D000344B354A1A60354A354C136813F4807331
:1002E00003D123604FF4A8531360324B324A1A6093
:1002F00000225A60072243F8042C304AC3F80C2D20
:1003000062B604F0CFFA2368DA0705D52C4804F06A
:1003100049FA2C4B2C4A1A602C4B1B785B0609D5EA
:10032000284C294B22689A4204D1254804F03AFA15
:100330000023236004F062F905F0E0FB04F054F8B8
:10034000FEE700BF0E20054030800440823F0400DD
:100350000100002B88ED00E0002008E0030000858C
:1003600002D0074000E007403410FF1F606A000021
:100370003007FF1F3410FF1F5464FF1F0002FF1FD0
:100380000000000000E400E064E400E008ED00E0AC
:10039000005006400040064001E007404480044011
:1003A0000000060204800440C010070010D0034083
:1003B00014D0034014E000E01FBF02000000202022
:1003C000C9966D621CE00340A5C3945A00F0074033
:1003D000FFFFFFFFFFFFFFFFFFFFFFFFFFFFFFFF2D
:1003E000FFFFFFFFFFFFFFFFFFFFFFFFFFFFFFFF1D
:1003F000FFFFFFFFFFFFFFFFFFFFFFFFFFFFFFFF0D
:10040000FFFFFFFFFFFFFFFFFFFFFFFFDEF9FFFF23
:1004100010B5054C237833B9044B13B10448AFF33E
:1004200000800123237010BD3410FF1F0000000066
:10043000646A0000084B10B51BB108490848AFF3C7
:1004400000800848036803B910BD074B002BFBD0A0
:10045000BDE81040184700BF000000003810FF1F23
:10046000646A00003410FF1F000000000020704785
:10047000034B186810B103681B681847704700BF2A
:100480009462FF1F034B186810B103681B6818477C
:10049000704700BF9862FF1F704700BF42F61013FD
:1004A000F0B5C1504348444F05680368B7FBF1F607
:1004B00043F0A043B7FBF6F791B005F080750360F9
:1004C000CF1B0368DC01FCD5052E70D90020DFF8B6
:1004D000E8E00446831CB6FBF3FCBCF1190F00F105
:1004E00001000CFB03F3F5D8BEFBF3F3CB1A002B92
:1004F000B8BF5B42BB4217DB17D0BCF1050FE9D890
:10050000631CB6FBF3F6053E142E02D8B7F5967FB2
:1005100016DD3DB9274A136823F080531360136832
:10052000D901FCD411B0F0BD0446BCF10B0F05D9C4
:10053000BCF1120F98BF04461F46DEE71F46DCE7FA
:1005400017461E493F22684603F056FF06EB460653
:1005500010AB1E441A4816F8403C16F83F1C16F81B
:100560003E2CC90403F0070646F4800601F460132C
:10057000120446EA030102F4E0230B4343F48043F0
:1005800043EA046404600368022F14BF23F00803E5
:1005900043F008030360002DC4D1064A136823F01A
:1005A000805313601368DB01FCD411B0F0BD01234C
:1005B0000024A6E7004002400024F400606500002B
:1005C0000440024042F61013F0B5C1504348444F76
:1005D00005680368B7FBF1F643F0A043B7FBF6F7F5
:1005E00091B005F080750360CF1B0368DC01FCD57A
:1005F000052E70D90020DFF8E8E00446831CB6FB26
:10060000F3FCBCF1190F00F101000CFB03F3F5D86A
:10061000BEFBF3F3CB1A002BB8BF5B42BB4217DB28
:1006200017D0BCF1050FE9D8631CB6FBF3F6053E05
:10063000142E02D8B7F5967F16DD3DB9274A136808
:1006400023F0805313601368D901FCD411B0F0BDBE
:100650000446BCF10B0F05D9BCF1120F98BF04463C
:100660001F46DEE71F46DCE717461E493F22684665
:1006700003F0C2FE06EB460610AB1E441A4816F8FD
:10068000403C16F83F1C16F83E2CC90403F0070640
:1006900046F4800601F46013120446EA030102F4F2
:1006A000E0230B4343F4804343EA0464046003689B
:1006B000022F14BF23F0080343F008030360002D4A
:1006C000C4D1064A136823F0805313601368DB011A
:1006D000FCD411B0F0BD01230024A6E700400A407D
:1006E0000024F4006065000004400A4000207047C8
:1006F0000020704708207047002070470020704796
:10070000082070470121022004F060B80021022077
:1007100004F05CB8104A1149136808681268096847
:1007200002F07F02C1F3036101320431B2EB410FE9
:1007300010D303F07F03C0F30360053B0130A3EB4C
:100740004000C3B2044A106800F07F000130C01AB4
:10075000C0B270470023F5E7004002403440024039
:10076000104A1149136808681268096802F07F028C
:10077000C1F3036101320431B2EB410F10D303F036
:100780007F03C0F30360053B0130A3EB4000C3B21D
:10079000044A106800F07F000130C01AC0B27047F0
:1007A0000023F5E700400A4034400A400349012293
:1007B0000B6802FA00F003430B60704730400A40B8
:1007C000034901220B6802FA00F003430B607047F3
:1007D00030400240704700BF08B51021034804F0C4
:1007E0002DFF0348BDE8084003F0A2BDA865000046
:1007F0003807FF1F38B505460321284804F01EFFBF
:1008000095F91410264803F0E7FD0B21254804F064
:1008100015FF697A224803F0DFFD0721224804F022
:100820000DFF00230A22E97A1D4803F095FD0621F9
:100830001E4804F003FFE979194803F0CDFD0521B6
:100840001B4804F0FBFEA988154803F0C5FD0521EF
:10085000184804F0F3FE002329681148102203F021
:100860007BFD0921144804F0E9FEEB7A00247BB1FA
:100870002A190023117B0A48102203F06DFD012183
:100880000E4804F0DBFE0134EB7AE4B2A342EFD869
:100890000348BDE8384003F04BBD00BFBC65000015
:1008A0003807FF1FC0650000CC650000D46500005C
:1008B000DC650000E4650000EC650000E865000010
:1008C00030B5012183B0022003F094FF01210520FF
:1008D00003F090FF01211F2003F08CFF01211A205B
:1008E00003F088FF01211B2003F084FF0221182060
:1008F00003F080FF0121232003F07CFF012124204D
:1009000003F078FF0121252003F074FF0121262048
:1009100003F070FF0121272003F06CFF0021152058
:1009200003F068FF01211A2003F050FF01211B2072
:1009300003F04CFF0121052003F048FF00210220B5
:1009400003F044FF0021242003F040FF0021252074
:1009500003F03CFF0021262003F038FF0021272070
:1009600003F034FF68460622074903F045FD6C4654
:100970000DF1060514F8010B012103F03BFFAC4219
:10098000F8D103B030BD00BFA065000010B5104C19
:100990001049204603F050FC20460F4903F04EFC5E
:1009A00020460E4903F04CFC20460D4903F04AFC5A
:1009B00020460C4903F048FC20464FF4FA6103F04E
:1009C00039FC2046FA21BDE8104003F031BC00BFDD
:1009D000A062FF1FD507000099040000D90700009E
:1009E0000D0700000507000030B5144883B003F080
:1009F0002DFC1349134A0B680093009B10681B1AC7
:100A0000C72B19D9104D0B682C680193019B1360FB
:100A10000134214600230A220C482C6003F09CFC80
:100A20000A4803F085FC0A4A137883F0010319464B
:100A30000220137003F0CAFE03B030BDA062FF1F96
:100A4000D862FF1F9C62FF1F8862FF1F3807FF1FCD
:100A5000D462FF1F6B4A2DE9F84F1468136843F006
:100A6000A04304F08074136013686648DD01FBD571
:100A70000368654D23F00053002203602A60036879
:100A800007461546614B62485E4E134410441B01F5
:100A90008000DD609D605D601D6005603B68013227
:100AA00003F07F03D2B201339A424FF00000E9D342
:100AB000584A594D594B286010601A681A603368BB
:100AC000002944D1DFF85CA1DFF83C91544F0D467A
:100AD0004FF000684FF0010B1BE0336803F07F0319
:100AE0000133B1EB930F2CBF4FF08C634FF0806359
:100AF00013603B6813F4803318BF4FF080430360EA
:100B00003368013503F07F03EDB201339D4229467E
:100B10002DD233683E483D4A03F07F030133284419
:100B20002A44B1EB530F4FEA80004FEA0212D4D3AC
:100B3000C2F8008033689A0053D41F2D0BFA05F2D7
:100B400056D8D9F800301343C9F80030D8E743F03D
:100B500000533360356815F0005514D0FFF7DAFD07
:100B6000336803F07F030133984205460CD3002C11
:100B70003CD1244A136823F0805313601368DB01CF
:100B8000FCD4BDE8F88F33681E4F264EDFF878801E
:100B900011E001231F2D03FA05F31AD8D8F800201D
:100BA0001343C8F800303B68013503F07F03EDB212
:100BB00001339D42DBD2154B2B441B014FF00062E9
:100BC0001A603B689900E4D5FFF7A4FDA842EAD873
:100BD000DFE732680123A5F120018B401343336026
:100BE000E1E7FFF797FDA8428AD8A6E7BDE8F88FAE
:100BF000DAF80020A5F120030BFA03F31343CAF837
:100C000000307DE7004002402840024008240004F4
:100C10002092001010400240484002403040024004
:100C20003440024024400240F8B542F60C1105461B
:100C300042F6151200234B206850614CAB546B6098
:100C4000AB60EB602B6122785E485F4F5F49604E7E
:100C500042F08002227002685E4CC7F86C4142F09C
:100C6000100202600A6822F400520A603278002AF8
:100C700000F09980584A11683370002900F0938081
:100C80001168B1F5007F08BF1360544B4FF4007238
:100C90001A60534B1A78002A79D0524A1068002102
:100CA0001970002873D01368B3F5007F4E4B08BF4E
:100CB00011604FF400721A604C490B6823F0004336
:100CC0000B600B6843F0A0430B600A68474BD601EA
:100CD000FBD53E490A6842F008020A601A6842F0F1
:100CE00080421A601A461168404BCC02FBD41A6845
:100CF00042F000721A601A689001FCD43B4A1368F3
:100D00003A4CD901FBD52368394A43F400332360B8
:100D1000236843F480332360236843F480532360C3
:100D2000236843F400532360236843F48003236063
:100D3000236843F400232360236823F408432360DB
:100D4000136843F4E0231360236843F40013236023
:100D5000236843F08063236000212846FFF77AFE72
:100D6000236823F0805323602368DB01FCD442F620
:100D70000C130121EA5853099B0003F1604303F56A
:100D8000614302F01F0201FA02F21A60F8BD164B2D
:100D90001A68B2F5007F04BF00221A60114B4FF4AD
:100DA00000721A6088E70D4B1A68B2F5007F04BF25
:100DB00000221A60084B4FF400721A6069E700BF06
:100DC000005006403C8004400002FF1F04400240E7
:100DD0003107FF1F710400003090044048A0044018
:100DE0003007FF1F349004404CA0044000400240F4
:100DF00034400240F8B5B94C266816F0005600F0B1
:100E000081801121B64804F019FCB64B1B689E0680
:100E10004BBF11211221B448B44804F00FFCB44870
:100E200003F086FA1621B34804F008FCAB4BB24A33
:100E3000186811681B68126803F07F03C2F303622D
:100E400001330432B3EB420FC0F0568300F07F054C
:100E5000C1F30361053D0131A5EB4105ECB29F4EA5
:100E6000A348316801F07F010131091BC9B2202973
:100E7000A8BF202103F0B0FA9D4803F059FA1621CB
:100E80009E4804F0DBFB9C4A33681268984803F0E4
:100E90007F03C2F3036201330432B3EB420F3CBF62
:100EA0000024254600230A22294603F055FA9048DB
:100EB00003F03EFA894A1368126803F07F03013396
:100EC0001C1B02F07F03E4B201339C4280F0CE8011
:100ED0008B4B23441D012B68C3F303630E2B00F2DD
:100EE000B181DFE813F0D302F702E502AF018C0213
:100EF000AF017A02AF01680244025602AF01BA01A3
:100F0000AF019E011A217F4804F098FB2368344604
:100F10007B4B23441D012B68C3F303630E2B00F2AC
:100F20009A80DFE813F06C015A01480198002D0106
:100F300098001B0198000901C800B60098000F0036
:100F40009800A4000421704804F078FB0023314687
:100F50000A22674803F000FA1D216C4804F06EFB7A
:100F60002B689B024FF0100140F1D3826848694F13
:100F700004F064FBAE686B682F4423F060450721E2
:100F8000654804F05BFB002310222946584803F013
:100F9000E3F90121614804F051FB0A21604804F0A3
:100FA0004DFB00231022310E514803F0D5F90121E9
:100FB0005C4804F043FB00231022C6F307414C4871
:100FC00003F0CAF90121574804F038FB002310222E
:100FD000C6F30721464803F0BFF90121514804F048
:100FE0002DFB1022F1B20023414803F0B5F94E4B1E
:100FF0004C483B4401211D6804F020FB00231022D3
:10100000290E3B4803F0A8F90121464804F016FBDD
:1010100000231022C5F30741354803F09DF9012153
:10102000404804F00BFB00231022C5F30721304891
:1010300003F092F901213B4804F000FBE9B20023E0
:1010400010222B4803F088F90121344804F0F6FA05
:10105000274803F06DF9214B1B68013403F07F032F
:10106000E4B201339C422646FFF452AFF8BD04219E
:10107000254804F0E3FA314600230A221C4803F015
:101080006BF91121294804F0D9FA194803F050F9F5
:10109000E1E704211C4804F0D1FA314600230A227A
:1010A000134803F059F91121214804F0C7FA1048F8
:1010B00003F03EF9CFE70421134804F0BFFA3146AC
:1010C00000230A220A4803F047F90F21194804F0C7
:1010D000B5FA074803F02CF9BDE700BF0040024015
:1010E000F8650000284002400C6600002066000001
:1010F0003807FF1F34660000344002404C66000091
:10110000082400049467000064660000246700005F
:101110004467000080BFFDBF6C670000A066000050
:1011200074670000E86500008C40024080670000A2
:10113000DC660000146700000421BE4804F07EFA5B
:10114000314600230A22BC4803F006F91221BB48AD
:1011500004F074FAB84803F0EBF87CE70421B548D2
:1011600004F06CFA314600230A22B34803F0F4F885
:101170001121B34804F062FAAF4803F0D9F86AE7E6
:101180000421AC4804F05AFA0A2231460023AA4846
:1011900003F0E2F80F21AB4804F050FA2B689A02F2
:1011A0004FF011014CBFA848A84804F047FAA248E4
:1011B00003F0BEF84FE704219E4804F03FFA3146A1
:1011C00000230A229C4803F0C7F80E21A04804F02F
:1011D00035FA994803F0ACF83DE70421954804F04E
:1011E0002DFA314600230A22934803F0B5F80E2168
:1011F000984804F023FA904803F09AF82BE704216A
:101200008C4804F01BFA314600230A228A4803F076
:10121000A3F81221904804F011FA874803F088F8E7
:1012200019E70421834804F009FA00230A22214621
:10123000814803F091F81121884804F0FFF97E48B5
:1012400003F076F8864B1B68013403F07F03E4B2A9
:1012500001339C42FFF43CAEF8BD0421754804F014
:10126000EDF900230A222146734803F075F81D2189
:101270007C4804F0E3F92B6898024FF0100140F12C
:101280003E817948794F04F0D9F9AE686B682F44F4
:1012900023F060450721764804F0D0F9002310229E
:1012A0002946654803F058F80121724804F0C6F950
:1012B0000A21714804F0C2F900231022310E5E4861
:1012C00003F04AF801216D4804F0B8F90023102218
:1012D000C6F30741584803F03FF80121674804F07E
:1012E000ADF900231022C6F30721534803F034F868
:1012F0000121624804F0A2F9F1B2102200234E4805
:1013000003F02AF85E4B5D483B4401211D6804F060
:1013100095F9290E00231022474803F01DF80121FA
:10132000564804F08BF9C5F30741002310224248C8
:1013300003F012F80121514804F080F9C5F30721A8
:10134000002310223C4803F007F801214B4804F029
:1013500075F9E9B200231022374802F0FDFF0121A0
:10136000444804F06BF9344802F0E2FF6AE70421D4
:10137000304804F063F900230A2221462E4802F087
:10138000EBFF0F213F4804F059F92B4802F0D0FF42
:1013900058E70421274804F051F900230A22214686
:1013A000254802F0D9FF1121374804F047F92248B7
:1013B00002F0BEFF46E704211E4804F03FF9002377
:1013C0000A2221461C4802F0C7FF12211B4804F0E4
:1013D00035F9194802F0ACFF34E70421154804F050
:1013E0002DF900230A222146134802F0B5FF1121EE
:1013F000134804F023F9104802F09AFF22E7042171
:101400000C4804F01BF90A22002321460A4802F086
:10141000A3FF0F210B4804F011F92B689D024FF038
:1014200011014CBF0848094804F008F9024802F0CD
:101430007FFF07E7646600003807FF1F00670000B2
:10144000C86600008066000090660000A466000088
:10145000B8660000F06600006C660000806700005F
:1014600000400240246700004467000080BFFDBFC9
:101470006C670000A066000074670000E86500006B
:101480008C40024014670000DC66000004212648FE
:1014900004F0D4F800230A222146244802F05CFF1D
:1014A0001221234804F0CAF8204802F041FFC9E69F
:1014B00004211D4804F0C2F800230A2221461B48DB
:1014C00002F04AFF0E211B4804F0B8F8174802F05A
:1014D0002FFFB7E60421144804F0B0F800230A22D5
:1014E0002146124802F038FF0E21134804F0A6F8F6
:1014F0000E4802F01DFFA5E600242546AFE40F4884
:101500000F4F04F09BF8AE686B682F44C3F38A4515
:10151000C0E60A480A4F04F091F8AE686B682F44A1
:10152000C3F38A452BE500BF646600003807FF1F40
:101530006C660000B8660000F066000058670000A6
:1015400080BFFDBF6B4A2DE9F84F1468136843F064
:10155000A04304F08074136013686648DD01FBD576
:101560000368654D23F00053002203602A6003687E
:1015700007461546614B62485E4E134410441B01FA
:101580008000DD609D605D601D6005603B6801322C
:1015900003F07F03D2B201339A424FF00000E9D347
:1015A000584A594D594B286010601A681A603368C0
:1015B000002944D1DFF85CA1DFF83C91544F0D467F
:1015C0004FF000684FF0010B1BE0336803F07F031E
:1015D0000133B1EB930F2CBF4FF08C634FF080635E
:1015E00013603B6813F4803318BF4FF080430360EF
:1015F0003368013503F07F03EDB201339D42294684
:101600002DD233683E483D4A03F07F03013328441E
:101610002A44B1EB530F4FEA80004FEA0212D4D3B1
:10162000C2F8008033689A0053D41F2D0BFA05F2DC
:1016300056D8D9F800301343C9F80030D8E743F042
:1016400000533360356815F0005514D0FFF788F863
:10165000336803F07F030133984205460CD3002C16
:101660003CD1244A136823F0805313601368DB01D4
:10167000FCD4BDE8F88F33681E4F264EDFF8788023
:1016800011E001231F2D03FA05F31AD8D8F8002022
:101690001343C8F800303B68013503F07F03EDB217
:1016A00001339D42DBD2154B2B441B014FF00062EE
:1016B0001A603B689900E4D5FFF752F8A842EAD8CF
:1016C000DFE732680123A5F120018B40134333602B
:1016D000E1E7FFF745F8A8428AD8A6E7BDE8F88F0A
:1016E000DAF80020A5F120030BFA03F31343CAF83C
:1016F00000307DE700400A4028400A4008A400046A
:101700002092021010400A4048400A4030400A40EF
:1017100034400A4024400A40F8B542F60C11054610
:1017200042F615135E2001226850454CEA5400230E
:101730006B60AB60EB602B612378424A4248434FB9
:10174000434E444943F0800323701368424C43F0F6
:10175000100313600368414AC4F8B82123F400530E
:101760004FF4007203603A6032600B6823F000436C
:101770000B600B6843F0A0430B600A68354BD60141
:10178000FBD531490A6842F008020A601A6842F043
:1017900080421A601A4611682E4BCC02FBD41A689C
:1017A00042F000721A601A689001FCD4294A13684A
:1017B000284CD901FBD52368294A43F40033236020
:1017C000236843F480332360236843F48053236009
:1017D000236843F400532360236843F480032360A9
:1017E000236843F400232360236823F40843236021
:1017F000136843F4E0231360236843F40013236069
:10180000236843F08063236000212846FFF79AFE97
:10181000236823F0805323602368DB01FCD442F665
:101820000C130121EA5853099B0003F1604303F5AF
:10183000614302F01F0201FA02F21A60F8BD00BF14
:10184000005006403080044004400A4060D004400C
:1018500064D0044000400A400002FF1F85040000DD
:1018600034400A40F8B5B94C266816F0005600F02E
:1018700081801121B64803F0E1FEB64B1B689E063D
:101880004BBF11211221B448B44803F0D7FEB4482D
:1018900002F04EFD1621B34803F0D0FEAB4BB24A26
:1018A000186811681B68126803F07F03C2F30362B3
:1018B00001330432B3EB420FC0F0568300F07F05D2
:1018C000C1F30361053D0131A5EB4105ECB29F4E2B
:1018D000A348316801F07F010131091BC9B22029F9
:1018E000A8BF202102F078FD9D4802F021FD1621BD
:1018F0009E4803F0A3FE9C4A33681268984803F0A0
:101900007F03C2F3036201330432B3EB420F3CBFE7
:101910000024254600230A22294602F01DFD904896
:1019200002F006FD894A1368126803F07F03013351
:101930001C1B02F07F03E4B201339C4280F0CE8096
:101940008B4B23441D012B68C3F303630E2B00F262
:10195000B181DFE813F0D302F702E502AF018C0298
:10196000AF017A02AF01680244025602AF01BA0128
:10197000AF019E011A217F4803F060FE23683446C0
:101980007B4B23441D012B68C3F303630E2B00F232
:101990009A80DFE813F06C015A01480198002D018C
:1019A00098001B0198000901C800B60098000F00BC
:1019B0009800A4000421704803F040FE0023314643
:1019C0000A22674802F0C8FC1D216C4803F036FE6D
:1019D0002B689B024FF0100140F1D3826848694F99
:1019E00003F02CFEAE686B682F4423F0604507219E
:1019F000654803F023FE002310222946584802F0D0
:101A0000ABFC0121614803F019FE0A21604803F094
:101A100015FE00231022310E514802F09DFC0121D9
:101A20005C4803F00BFE00231022C6F307414C482C
:101A300002F092FC0121574803F000FE002310221F
:101A4000C6F30721464802F087FC0121514803F004
:101A5000F5FD1022F1B20023414802F07DFC4E4B0F
:101A60004C483B4401211D6803F0E8FD002310228F
:101A7000290E3B4802F070FC0121464803F0DEFDD0
:101A800000231022C5F30741354802F065FC01210F
:101A9000404803F0D3FD00231022C5F3072130484E
:101AA00002F05AFC01213B4803F0C8FDE9B20023D3
:101AB00010222B4802F050FC0121344803F0BEFDF7
:101AC000274802F035FC214B1B68013403F07F03EB
:101AD000E4B201339C422646FFF452AFF8BD042124
:101AE000254803F0ABFD314600230A221C4802F0D2
:101AF00033FC1121294803F0A1FD194802F018FC1C
:101B0000E1E704211C4803F099FD314600230A2235
:101B1000134802F021FC1121214803F08FFD1048E9
:101B200002F006FCCFE70421134803F087FD31469D
:101B300000230A220A4802F00FFC0F21194803F083
:101B40007DFD074802F0F4FBBDE700BF00400A40FE
:101B5000F865000028400A400C660000206600007E
:101B60003807FF1F3466000034400A404C6600000E
:101B700008A4000494670000646600002467000065
:101B80004467000080BFF5BF6C670000A0660000DE
:101B900074670000E86500008C400A408067000020
:101BA000DC660000146700000421BE4803F046FD17
:101BB000314600230A22BC4802F0CEFB1221BB486A
:101BC00003F03CFDB84802F0B3FB7CE70421B548C4
:101BD00003F034FD314600230A22B34802F0BCFB77
:101BE0001121B34803F02AFDAF4802F0A1FB6AE7D8
:101BF0000421AC4803F022FD0A2231460023AA4802
:101C000002F0AAFB0F21AB4803F018FD2B689A02E3
:101C10004FF011014CBFA848A84803F00FFDA2489F
:101C200002F086FB4FE704219E4803F007FD314692
:101C300000230A229C4802F08FFB0E21A04803F0EB
:101C4000FDFC994802F074FB3DE70421954803F040
:101C5000F5FC314600230A22934802F07DFB0E2159
:101C6000984803F0EBFC904802F062FB2BE704215C
:101C70008C4803F0E3FC314600230A228A4802F034
:101C80006BFB1221904803F0D9FC874802F050FB0F
:101C900019E70421834803F0D1FC00230A222146DE
:101CA000814802F059FB1121884803F0C7FC7E48A7
:101CB00002F03EFB864B1B68013403F07F03E4B265
:101CC00001339C42FFF43CAEF8BD0421754803F09B
:101CD000B5FC00230A222146734802F03DFB1D217A
:101CE0007C4803F0ABFC2B6898024FF0100140F1E8
:101CF0003E817948794F03F0A1FCAE686B682F44B0
:101D000023F060450721764803F098FC0023102259
:101D10002946654802F020FB0121724803F08EFC41
:101D20000A21714803F08AFC00231022310E5E481C
:101D300002F012FB01216D4803F080FC0023102209
:101D4000C6F30741584802F007FB0121674803F03A
:101D500075FC00231022C6F30721534802F0FCFA59
:101D60000121624803F06AFCF1B2102200234E48C0
:101D700002F0F2FA5E4B5D483B4401211D6803F01E
:101D80005DFC290E00231022474802F0E5FA0121EC
:101D9000564803F053FCC5F3074100231022424884
:101DA00002F0DAFA0121514803F048FCC5F307219B
:101DB000002310223C4802F0CFFA01214B4803F0E7
:101DC0003DFCE9B200231022374802F0C5FA012198
:101DD000444803F033FC344802F0AAFA6AE70421CD
:101DE000304803F02BFC00230A2221462E4802F043
:101DF000B3FA0F213F4803F021FC2B4802F098FA78
:101E000058E70421274803F019FC00230A22214641
:101E1000254802F0A1FA1121374803F00FFC2248AF
:101E200002F086FA46E704211E4803F007FC00236F
:101E30000A2221461C4802F08FFA12211B4803F0A7
:101E4000FDFB194802F074FA34E70421154803F049
:101E5000F5FB00230A222146134802F07DFA1121E6
:101E6000134803F0EBFB104802F062FA22E704216A
:101E70000C4803F0E3FB0A22002321460A4802F043
:101E80006BFA0F210B4803F0D9FB2B689D024FF032
:101E900011014CBF0848094803F0D0FB024802F08A
:101EA00047FA07E7646600003807FF1F0067000075
:101EB000C86600008066000090660000A46600000E
:101EC000B8660000F06600006C66000080670000E5
:101ED00000400A40246700004467000080BFF5BF4F
:101EE0006C670000A066000074670000E8650000F1
:101EF0008C400A4014670000DC660000042126487C
:101F000003F09CFB00230A222146244802F024FA15
:101F10001221234803F092FB204802F009FAC9E697
:101F200004211D4803F08AFB00230A2221461B4896
:101F300002F012FA0E211B4803F080FB174802F052
:101F4000F7F9B7E60421144803F078FB00230A22CE
:101F50002146124802F000FA0E21134803F06EFBEE
:101F60000E4802F0E5F9A5E600242546AFE40F4847
:101F70000F4F03F063FBAE686B682F44C3F38A45D1
:101F8000C0E60A480A4F03F059FBAE686B682F445D
:101F9000C3F38A452BE500BF646600003807FF1FC6
:101FA0006C660000B8660000F0660000586700002C
:101FB00080BFF5BFF8B54D48FEF736FE4C4B4B4899
:101FC00019680022FEF76AFA4A4A136843F0A043F0
:101FD00013601368474CDD01FBD5444E256830463D
:101FE0000021FEF737FD444B1A681A60236823F07E
:101FF0007F0323602368A80043F00F03236070D49D
:102000003C4A136823F0805313601368394CD9019C
:10201000FBD401213548FEF71DFD23689B0003D545
:10202000364B1A6897064ED542F604032F48344DB6
:10203000F550FEF7DFFE3348FFF76EFB324B3148B9
:1020400019680022FEF7BEFA304A136843F0A04335
:10205000136013682D4CDE01FBD52A4E27683046ED
:102060000021FFF76FFA2A4B1A681A60236823F0E1
:102070007F032360236843F00F032360BC002BD44D
:10208000224A136823F08053136013681F4CD80151
:10209000FBD401211B48FFF755FA236899000BD5A3
:1020A0001C4B1A68920607D41A6822F0FF021A60C5
:1020B0001A6842F020021A6042F604031148F550F3
:1020C000FFF7D0FBF8BD1A6822F0FF021A601A6809
:1020D00042F020021A60A7E701213046FFF732FAEA
:1020E000CEE701213046FEF7B5FC89E75810FF1F07
:1020F0008C62FF1F004002403040024028400240F6
:10210000F50700007039FF1F9062FF1F00400A4072
:1021100030400A4028400A4008B5FEF7D1FBFFF7DF
:1021200049FFFEF733FC0E21034803F087FA03480A
:10213000BDE8084002F0FCB8B06700003807FF1F98
:1021400001EB4101C90030B400F504546318605834
:10215000C0002AD56058400F012829D06058400F90
:10216000022839D06058400F052802D0002030BC2A
:1021700070476058C0F3C210C0B158695C685969B3
:1021800010402140884210D001211C680131C4F365
:10219000C214C9B20134A142E8D25C6953F821509B
:1021A0005869144028408442EFD1012030BC704768
:1021B0006158C1F3C211C1B159688A42F6D0196899
:1021C000C4B2C1F3C2118C4204F10100CED253F863
:1021D00020109142F3D1E8E759688A42C6D3986843
:1021E00082428CBF00200120E0E70846DEE700BF06
:1021F0001F2938B50D46144633D91C49A5F12000D6
:102200000A680123834013430B60194BE2792B4486
:102210001B014FF000611960BAB1217A22680029D0
:1022200022F060425A6014BF4FF4E0014FF4C00145
:10223000E06800BA9860206900BAD860E27A41EAA2
:10224000024242F040621A6038BD2168207A094A91
:1022500089040A4000285A600CBF00214FF4801105
:10226000E6E70846FEF7A2FACFE700BF2C400A4097
:1022700008A400040000FC1F0B78632B70B5044613
:1022800015460FD000EB830342F204729B580BB14A
:102290002846984742F60403E3584BB12846BDE868
:1022A0007040184742F20473C358002BF0D1F1E795
:1022B00070BD00BF01EB4101C90030B400F504540A
:1022C00063186058C0002AD56058400F012829D0F3
:1022D0006058400F022839D06058400F052802D0BE
:1022E000002030BC70476058C0F3C210C0B15869BC
:1022F0005C68596910402140884210D001211C6857
:102300000131C4F3C214C9B20134A142E8D25C69FC
:1023100053F821505869144028408442EFD10120DD
:1023200030BC70476158C1F3C211C1B159688A42CB
:10233000F6D01968C4B2C1F3C2118C4204F1010095
:10234000CED253F820109142F3D1E8E759688A427F
:10235000C6D3986882428CBF00200120E0E708467F
:10236000DEE700BF1F2938B50D46144633D91C4996
:10237000A5F120000A680123834013430B60194B29
:10238000E2792B441B014FF000611960BAB1217A48
:102390002268002922F060425A6014BF4FF4E00125
:1023A0004FF4C001E06800BA9860206900BAD860B4
:1023B000E27A41EA024242F040621A6038BD216886
:1023C000207A094A89040A4000285A600CBF00217B
:1023D0004FF48011E6E70846FEF7F2F9CFE700BFB9
:1023E0002C400240082400040000FC1F0B78632BE3
:1023F00070B5044615460FD000EB830342F2047219
:102400009B580BB12846984742F60403E3584BB15A
:102410002846BDE87040184742F20473C358002BA9
:10242000F0D1F1E770BD00BF10B504461A20238833
:10243000DBB200FB0343084603F5847103F046FE5C
:1024400023880133C3F308032380A3889BB21BB105
:10245000A388013B9BB2A380002010BD2DE9F04171
:1024600000F51C538EB01A7805460AB901221A707D
:102470002B8B9BB2002B4CD142F60C130122EB5854
:102480005A4903F01F005B0905F5D856824041F810
:1024900023201A36B3889BB241F61A38FBB135F8BF
:1024A00008301A2103F00F0301FB036118311822D1
:1024B00008A808AC01F0A0FF0FCC02AF0FC794E84A
:1024C000030087E803009DF91C104B1C43D0484BC8
:1024D0000B441B011B68C3F30363082B66D042F651
:1024E0000C130121EA5853099B0003F1604303F5E3
:1024F000614302F01F0201FA02F21A602B8BB088CE
:102500009BB280B21B0380B2002118430EB0BDE81D
:10251000F08100230824049308A98DF813401822A1
:1025200005F1140008AC02930393059306930793F7
:10253000FFF77AFF0FCC02AE0FC694E8030086E8DF
:1025400003000EA99DF81C3001F8313D02AA28466F
:10255000FFF74CFF90E7274F3C6814F000543AD146
:102560003B68244F07E03B68013403F07F03E4B28B
:1025700001339C42B3D21E4B23441B011B68C3F39F
:102580000363082BEFD102AA21462846FFF7EAFE93
:102590003388013303F01F033380B3889BB2002BD1
:1025A000E1D0B388013B9BB2B380DCE702AAC9B299
:1025B0002846FFF7D7FE35F80830013303F01F0334
:1025C00025F80830B3889BB2002B88D0B388013B34
:1025D0009BB2B38083E7FEF79DF83B6803F07F036F
:1025E000013383420446BCD879E700BF80E100E0B4
:1025F00008240004004002402DE9F04100F51C537E
:102600008EB01A7805460AB901221A702B8B9BB23C
:10261000002B4CD142F60C130122EB585A4903F01F
:102620001F005B0905F5D856824041F823201A3671
:10263000B3889BB241F61A38FBB135F808301A213D
:1026400003F00F0301FB03611831182208A808AC3E
:1026500001F0D2FE0FCC02AF0FC794E8030087E869
:1026600003009DF91C104B1C43D0484B0B441B012D
:102670001B68C3F30363082B66D042F60C130121D9
:10268000EA5853099B0003F1604303F5614302F0EC
:102690001F0201FA02F21A602B8BB0889BB280B243
:1026A0001B0380B2002118430EB0BDE8F081002367
:1026B0000824049308A98DF81340182205F114008A
:1026C00008AC02930393059306930793FFF7ACFEC0
:1026D0000FCC02AE0FC694E8030086E803000EA9F3
:1026E0009DF81C3001F8313D02AA2846FFF7C4FDD1
:1026F00090E7274F3C6814F000543AD13B68244FD0
:1027000007E03B68013403F07F03E4B201339C42ED
:10271000B3D21E4B23441B011B68C3F30363082B76
:10272000EFD102AA21462846FFF762FD3388013324
:1027300003F01F033380B3889BB2002BE1D0B38832
:10274000013B9BB2B380DCE702AAC9B22846FFF77F
:102750004FFD35F80830013303F01F0325F808302A
:10276000B3889BB2002B88D0B388013B9BB2B38067
:1027700083E7FDF7F5FF3B6803F07F0301338342F6
:102780000446BCD879E700BF80E100E008A400045B
:1027900000400A40438870B5DBB21A2505FB0303ED
:1027A0000446161283F806616388DBB205FB034317
:1027B00083F807216088C0B205FB004000F58470F3
:1027C00003F084FC628823889BB292B283F4807306
:1027D0009A420DD063880133C3F308036380A38852
:1027E0009BB2FF2B03D8A38801339BB2A38070BD9B
:1027F00023880133C3F308032380EBE72DE9F04F6F
:102800000D46064689460FCD8DB06C460FC495E83F
:10281000030084E80300DFF89CA0354606F11007AA
:102820004FF0010855F8044F64B1D4E902019DF955
:10283000142008FA02F31840002150EA010322D1C3
:10284000237C9BB9BD42EDD106F51C531B782BB3FD
:10285000494606A8182201F0CFFD06A906F114008A
:102860001822FFF797FF0DB0BDE8F08F2368D3F86B
:1028700000B0D345E6D020469DF815304FF0FF322A
:102880006946D847DEE72368D3F800B0D345D7D0F0
:102890009DF8153069462046D847D1E70CA999F82C
:1028A000143001F8183D30464A46FFF7E5FC0DB0FC
:1028B000BDE8F08F6D04000042F20173C35C002B91
:1028C00000F0AA802DE9F04F0F460E4605460FCFC7
:1028D00089B002AC0FC497E8030084E80300974B6B
:1028E0001B689B0054D5964B1B68C3F3036A4FEAE1
:1028F000CA0A0AF1080A00244FF0630B0CE01968B9
:10290000490F022900F095801968490F052900F048
:10291000AD80013454453BD096F91430632B5FFAF7
:1029200084FE35D004EB440805EBC80909F5F053E3
:10293000196811F0604FECD01968490F0129DED1F8
:102940001A68F179C2F300429142E2D11A6812F496
:10295000607FDED01F464FEA4808002306E03A6851
:102960005FFA89F3C2F3C2129342D2D203F1010992
:1029700008EB090303F5F063029A55F823309A42F5
:10298000EDD102A928468DF81CB0FFF737FFE6E726
:1029900000236A4F8DF80E303C6814F000543CD18F
:1029A0003B68DFF8988108E0D8F80030013403F084
:1029B0007F03E4B201339C4238D296F91430A3422B
:1029C000F2D004EB440105EBC10202F50453186890
:1029D00010F0604FE8D01868F779C0F3C060874204
:1029E000E2D11868400F012874D01968490F0229F4
:1029F00000F094801B685B0F052BD5D1029A21460D
:102A00002846FFF79DFB0028CED002A928468DF866
:102A10001C40FFF7F3FEC7E77047FDF7A1FE3B68D8
:102A200003F07F03013398420446BAD309B0BDE8EE
:102A3000F08F1B68F279C3F300439A427FF469AFC9
:102A400009F5F0530433029A1B689A42FFF461AF10
:102A500009F5F059D9F808309A423FF65AAF02A961
:102A600028468DF81CB0FFF7C9FE52E71B6813F427
:102A7000607F3FF44EAF09F5F0534FEA4808143336
:102A800001270AE009F5F05101370968C1F3C211C5
:102A9000FFB201318F42BFF43CAF08EB070101F5F3
:102AA000F0611868029A55F821C0196810400CEAC4
:102AB00001018842E6D102A9284601938DF80EE073
:102AC000CDF800E08DF81CB0FFF798FE019BDDF813
:102AD00000E0D7E71A6812F4607F3FF465AF1F4645
:102AE0004FEA410A002307E03A685FFA89F3C2F32C
:102AF000C2129342BFF458AF03F101090AEB090374
:102B000003F50463029A55F823309A42ECD102A9E6
:102B100028468DF81C40FFF771FEE5E702F50453E7
:102B2000043302991B689942FFF43EAF02F5045248
:102B3000936899427FF669AF36E700BF00400A40CC
:102B400034400A402DE9F04F9BB00023A84CA9491E
:102B50000A930825089309930B930C930D938DF812
:102B60002B50D4F80090A44A0B68059319461368BB
:102B70001C04804603D413689B0000F14B81DFF8EE
:102B800078A2059BDAF8004043F00105B5FA85F517
:102B9000C5F1200514F00054EDB240F0AA80DAF837
:102BA0000030029508F5245A534608330AF1150AF5
:102BB000CDF818A00793DDF814A016E0062A00F05F
:102BC000FD80042A00F05E82082A00F0C9818A4B49
:102BD0001B68013403F07F03E4B201339C4280F0B0
:102BE0009580029BA34200F0918029FA04F606F03A
:102BF0000102002313434FF00007E8D02AFA04F340
:102C00008DE88800DDE90023002302F00102134370
:102C1000DDD07A4B23444FEA031BDBF80030C3F3CB
:102C20000362022ACAD103F40012002ADBF804105E
:102C300014BF012000208DF8270021F0604140F0F2
:102C4000D080890C0891C3F303418DF82B100699AD
:102C50008DF8344009788DF83510DBF808108DF8C0
:102C60002F10DBF80810ADF824300B0A8DF82E3049
:102C7000DBF808301B0C8DF82D30DBF808301B0E0C
:102C80008DF82C30DBF80C308DF83330DBF80C305D
:102C90001B0A8DF83230DBF80C301B0C8DF831300C
:102CA000DBF80C30002A4FEA13630CBF4FF0806250
:102CB0004FF08C628DF83030514BCBF8002020461D
:102CC0001B68FDF773FD089A21464046FFF738FA66
:102CD000002840F0408108A94046FFF7EDFD08A814
:102CE000AFF3008008A8AFF3008008A8AFF300801E
:102CF0006DE7FDF735FDDAF8003003F07F030133AF
:102D00009842044602D285423FF64BAF3D4B3E4CC3
:102D1000186821683D4A41400A40002A45D008F51C
:102D2000E65310339A8892B20F2A3ED89A8892B20C
:102D30000F2A40F2988141F6D04659885D8838F8CC
:102D4000062001F00F0192B20231ADB282F0100202
:102D5000954243F8210000F05A8259882C4D08F51D
:102D6000EC52013101F01F01183259802E6893880E
:102D70009BB20F2BB6B240F2718141F69857518841
:102D8000558838F8073001F00F019BB202EB410182
:102D9000ADB283F010039D42CE8000F030825388A4
:102DA0002060013303F01F035380164A1368034366
:102DB0001360BFF34F8F1BB0BDE8F08F03F4001218
:102DC000002ADBF8041014BF012000208DF8270032
:102DD00021F0604108D1890C089101218DF829105A
:102DE00031E7089101222EE708910122F5E700BFA3
:102DF00028400A4030400A4000400A4008A400042D
:102E000008400A4020400A405410FF1FBFFF07003F
:102E10001C400A4019F0200F3FF4B1AE8D067FF53B
:102E2000AEAE934B934A1B68ADF82430C3F3034115
:102E30008DF82B101268904903F40010002814BF7D
:102E40000020122022F0604222FA00F24FEAD35012
:102E500008928DF826000A688DF82F200868874AA6
:102E60004FEA10208DF82E0008684FEA10408DF8C8
:102E70002D0008684FEA10608DF82C0010688DF85E
:102E8000330010684FEA10208DF8320010684FEAC6
:102E900010408DF83100126842F615104FEA1262A8
:102EA00018F800008DF830204FF063028DF83420C0
:102EB0008DF8350014BF01220022C3F30053052012
:102EC0008DF8283051F8803C8DF82720FDF76EFCF6
:102ED000059B5B0600F1D881059B1C0600F1D081A3
:102EE00008A94046FFF7E8FC08A8AFF3008008A84F
:102EF000AFF3008008A8AFF3008008F5F0531B681B
:102F0000D80040F169815E4BDDF820E01B68CDE917
:102F10000267C3F3036B4FEACB0B0BF1080B4FF0C7
:102F2000000C0CEB4C0008EBC00202F5F0510B68F2
:102F30005B0F012B00F035810B685B0F022B00F05B
:102F400050810B685B0F052B00F069810CF1010CBF
:102F5000E345E6D113E608A94046FFF74FFCBAE681
:102F6000069ADBF8041012788DF83440C3F303405E
:102F70008DF835208DF82B00DBF808208DF82F20F8
:102F8000DBF80820ADF82430120A8DF82E20DBF88B
:102F90000820120C8DF82D20DBF80820120E8DF879
:102FA0002C20DBF80C208DF83320DBF80C20120AE3
:102FB0008DF83220DBF80C20120C03F400108DF891
:102FC000312004F602230028DBF80C0058F82320F7
:102FD00021F0604314BF0021122123FA01F34FEACC
:102FE000106114BF0120002008938DF830108DF877
:102FF00027000AB108A89047079B1B680BB108A8D7
:10300000984708F5D85B0BF11A0BBBF804309BB25C
:10301000002B00F05681BBF800301A2103F00F039B
:1030200001FB03B11831182214A801F0E5F90DF1E4
:10303000500EBEE80F000EADAC46ACE80F009EE8A7
:1030400003008CE803009DF94C305A1C00F02081ED
:103050009C427FF4BCAD2A46E1B21BE19388013368
:103060009BB2938089E69A88013292B29A8062E696
:1030700080400A4084400A4088400A408C400A4010
:1030800034400A40069ADBF8041012788DF8344078
:10309000C3F303408DF835208DF82B00DBF80820B2
:1030A0008DF82F20DBF80820ADF82430120A8DF8B7
:1030B0002E20DBF80820120C8DF82D20DBF80820DC
:1030C000120E8DF82C20DBF80C208DF83320DBF865
:1030D0000C20120A8DF83220DBF80C20120C03F4BD
:1030E00000108DF8312004F602230028DBF80C00D4
:1030F00058F8232021F0604314BF0021122123FA45
:1031000001F34FEA106114BF0120002008938DF8ED
:1031100030108DF827000AB108A89047079B1B685C
:103120000BB108A8984708F5D8531A3305939B8824
:103130009BB2002B00F09C80059A13881A2103F0A3
:103140000F0301FB03211831182214A801F054F9D0
:103150000DF1500EBEE80F000EADAC46ACE80F000E
:103160009EE803008CE803009DF94C30591C00F0E8
:10317000AC809C427FF42BAD2A46E1B24046FFF77B
:1031800037F805990B88013303F01F030B808B88F8
:103190009BB2002B3FF41BAD8B88013B9BB28B8015
:1031A00015E50C6814F4607F3FF4D0AE0A46043293
:1031B0001268964510D00C4645002268D8B2431CD0
:1031C000C2F3C212E918904201F5F061BFF4BEAE3D
:1031D00058F821209645F0D108A94046FFF70EFB8C
:1031E000CDE402F5F05304331B689E45FFF4AEAE08
:1031F00002F5F05293689E453FF6A8AEECE738F82A
:103200000730013303F01F0328F80730C7E538F80B
:103210000620013202F01F0228F806209DE50B6807
:1032200013F4607F3FF492AE02F5F054224614345A
:103230002568536827680EEA05023B409A42CBD0C6
:10324000400001230A680133C2F3C212DBB201322B
:10325000C518934205F5F065BFF478AE266858F8B6
:10326000257022680EEA06053A409542EAD1B3E796
:103270002046FDF79BFA4FF00063CBF80030A6E440
:103280000720FDF793FA2BE60620FDF78FFA23E6D9
:103290002A4621464046FEF7ABFFBBF8003001331B
:1032A00003F01F03ABF80030BBF804309BB2002BD7
:1032B0003FF48DACBBF80430013B9BB2ABF804305B
:1032C00085E42046FDF772FA81E42A46214655E757
:1032D0002DE9F04F0D46064689460FCD8DB06C4660
:1032E0000FC495E8030084E80300DFF89CA035468E
:1032F00006F110074FF0010855F8044F64B1D4E906
:1033000002019DF9142008FA02F31840002150EA46
:10331000010322D1237C9BB9BD42EDD106F51C539C
:103320001B782BB3494606A8182201F065F806A9B8
:1033300006F114001822FFF72DFA0DB0BDE8F08F4A
:103340002368D3F800B0D345E6D020469DF8153069
:103350004FF0FF326946D847DEE72368D3F800B064
:10336000D345D7D09DF8153069462046D847D1E7D8
:103370000CA999F8143001F8183D30464A46FFF779
:1033800035F80DB0BDE8F08F6D04000042F2017316
:10339000C35C002B00F0AA802DE9F04F0F460E46CB
:1033A00005460FCF89B002AC0FC497E8030084E84C
:1033B0000300974B1B689B0054D5964B1B68C3F3C7
:1033C000036A4FEACA0A0AF1080A00244FF0630BA5
:1033D0000CE01968490F022900F095801968490F1F
:1033E000052900F0AD80013454453BD096F91430E6
:1033F000632B5FFA84FE35D004EB440805EBC80963
:1034000009F5F053196811F0604FECD01968490FB5
:103410000129DED11A68F179C2F300429142E2D16A
:103420001A6812F4607FDED01F464FEA4808002376
:1034300006E03A685FFA89F3C2F3C2129342D2D22D
:1034400003F1010908EB090303F5F063029A55F84B
:1034500023309A42EDD102A928468DF81CB0FFF71F
:1034600037FFE6E700236A4F8DF80E303C6814F012
:1034700000543CD13B68DFF8988108E0D8F8003070
:10348000013403F07F03E4B201339C4238D296F951
:103490001430A342F2D004EB440105EBC10202F563
:1034A0000453186810F0604FE8D01868F779C0F33B
:1034B000C0608742E2D11868400F012874D01968B3
:1034C000490F022900F094801B685B0F052BD5D1B2
:1034D000029A21462846FEF7EDFE0028CED002A92A
:1034E00028468DF81C40FFF7F3FEC7E77047FDF74D
:1034F00011F93B6803F07F03013398420446BAD3C5
:1035000009B0BDE8F08F1B68F279C3F300439A421B
:103510007FF469AF09F5F0530433029A1B689A42AD
:10352000FFF461AF09F5F059D9F808309A423FF637
:103530005AAF02A928468DF81CB0FFF7C9FE52E722
:103540001B6813F4607F3FF44EAF09F5F0534FEA68
:103550004808143301270AE009F5F05101370968DA
:10356000C1F3C211FFB201318F42BFF43CAF08EB8F
:10357000070101F5F0611868029A55F821C0196831
:1035800010400CEA01018842E6D102A928460193C5
:103590008DF80EE0CDF800E08DF81CB0FFF798FE36
:1035A000019BDDF800E0D7E71A6812F4607F3FF472
:1035B00065AF1F464FEA410A002307E03A685FFA09
:1035C00089F3C2F3C2129342BFF458AF03F1010969
:1035D0000AEB090303F50463029A55F823309A4273
:1035E000ECD102A928468DF81C40FFF771FEE5E7F3
:1035F00002F50453043302991B689942FFF43EAF6D
:1036000002F50452936899427FF669AF36E700BF2E
:1036100000400240344002402DE9F04F9BB00023AF
:10362000A84CA9490A930825089309930B930C9376
:103630000D938DF82B50D4F80090A44A0B68059395
:10364000194613681C04804603D413689B0000F1DC
:103650004B81DFF878A2059BDAF8004043F00105C2
:10366000B5FA85F5C5F1200514F00054EDB240F02F
:10367000AA80DAF80030029508F5245A5346083338
:103680000AF1150ACDF818A00793DDF814A016E08A
:10369000062A00F0FD80042A00F05E82082A00F06D
:1036A000C9818A4B1B68013403F07F03E4B2013304
:1036B0009C4280F09580029BA34200F0918029FA01
:1036C00004F606F00102002313434FF00007E8D090
:1036D0002AFA04F38DE88800DDE90023002302F0D4
:1036E00001021343DDD07A4B23444FEA031BDBF87E
:1036F0000030C3F30362022ACAD103F40012002A85
:10370000DBF8041014BF012000208DF8270021F001
:10371000604140F0D080890C0891C3F303418DF8DB
:103720002B1006998DF8344009788DF83510DBF8A8
:1037300008108DF82F10DBF80810ADF824300B0AB4
:103740008DF82E30DBF808301B0C8DF82D30DBF8AF
:1037500008301B0E8DF82C30DBF80C308DF8333030
:10376000DBF80C301B0A8DF83230DBF80C301B0C08
:103770008DF83130DBF80C30002A4FEA13630CBFB0
:103780004FF080624FF08C628DF83030514BCBF8A7
:10379000002020461B68FDF713F8089A2146404692
:1037A000FEF788FD002840F0408108A94046FFF759
:1037B000EDFD08A8AFF3008008A8AFF3008008A8CB
:1037C000AFF300806DE7FCF7A5FFDAF8003003F0F7
:1037D0007F0301339842044602D285423FF64BAF45
:1037E0003D4B3E4C186821683D4A41400A40002A42
:1037F00045D008F5E65310339A8892B20F2A3ED886
:103800009A8892B20F2A40F2988141F6D0465988A0
:103810005D8838F8062001F00F0192B20231ADB296
:1038200082F01002954243F8210000F05A82598834
:103830002C4D08F5EC52013101F01F01183259806E
:103840002E6893889BB20F2BB6B240F2718141F67D
:1038500098575188558838F8073001F00F019BB20E
:1038600002EB4101ADB283F010039D42CE8000F027
:10387000308253882060013303F01F035380164ABF
:10388000136803431360BFF34F8F1BB0BDE8F08F85
:1038900003F40012002ADBF8041014BF01200020FA
:1038A0008DF8270021F0604108D1890C0891012191
:1038B0008DF8291031E7089101222EE708910122A5
:1038C000F5E700BF2840024030400240004002407F
:1038D0000824000408400240204002405010FF1F0E
:1038E000BFFF07001C40024019F0200F3FF4B1AEAB
:1038F0008D067FF5AEAE934B934A1B68ADF824302E
:10390000C3F303418DF82B101268904903F40010A3
:10391000002814BF0020122022F0604222FA00F298
:103920004FEAD35008928DF826000A688DF82F20B0
:103930000868874A4FEA10208DF82E0008684FEA81
:1039400010408DF82D0008684FEA10608DF82C00AB
:1039500010688DF8330010684FEA10208DF832009F
:1039600010684FEA10408DF83100126842F61510C9
:103970004FEA126218F800008DF830204FF0630211
:103980008DF834208DF8350014BF01220022C3F3D6
:10399000005305208DF8283051F8803C8DF8272001
:1039A000FCF70EFF059B5B0600F1D881059B1C060A
:1039B00000F1D08108A94046FFF7E8FC08A8AFF362
:1039C000008008A8AFF3008008A8AFF3008008F5D6
:1039D000F0531B68D80040F169815E4BDDF820E0B0
:1039E0001B68CDE90267C3F3036B4FEACB0B0BF106
:1039F000080B4FF0000C0CEB4C0008EBC00202F57A
:103A0000F0510B685B0F012B00F035810B685B0FE9
:103A1000022B00F050810B685B0F052B00F06981D1
:103A20000CF1010CE345E6D113E608A94046FFF787
:103A30004FFCBAE6069ADBF8041012788DF8344091
:103A4000C3F303408DF835208DF82B00DBF80820F8
:103A50008DF82F20DBF80820ADF82430120A8DF8FD
:103A60002E20DBF80820120C8DF82D20DBF8082022
:103A7000120E8DF82C20DBF80C208DF83320DBF8AB
:103A80000C20120A8DF83220DBF80C20120C03F403
:103A900000108DF8312004F602230028DBF80C001A
:103AA00058F8232021F0604314BF0021122123FA8B
:103AB00001F34FEA106114BF0120002008938DF834
:103AC00030108DF827000AB108A89047079B1B68A3
:103AD0000BB108A8984708F5D85B0BF11A0BBBF897
:103AE00004309BB2002B00F05681BBF800301A2145
:103AF00003F00F0301FB03B11831182214A800F0E2
:103B00007BFC0DF1500EBEE80F000EADAC46ACE8EC
:103B10000F009EE803008CE803009DF94C305A1C0E
:103B200000F020819C427FF4BCAD2A46E1B21BE14B
:103B3000938801339BB2938089E69A88013292B2CE
:103B40009A8062E680400240844002408840024001
:103B50008C40024034400240069ADBF80410127890
:103B60008DF83440C3F303408DF835208DF82B00D9
:103B7000DBF808208DF82F20DBF80820ADF8243082
:103B8000120A8DF82E20DBF80820120C8DF82D205B
:103B9000DBF80820120E8DF82C20DBF80C208DF8B5
:103BA0003320DBF80C20120A8DF83220DBF80C20D1
:103BB000120C03F400108DF8312004F602230028C3
:103BC000DBF80C0058F8232021F0604314BF0021DB
:103BD000122123FA01F34FEA106114BF01200020E3
:103BE00008938DF830108DF827000AB108A8904787
:103BF000079B1B680BB108A8984708F5D8531A33E0
:103C000005939B889BB2002B00F09C80059A13883B
:103C10001A2103F00F0301FB03211831182214A805
:103C200000F0EAFB0DF1500EBEE80F000EADAC4601
:103C3000ACE80F009EE803008CE803009DF94C30CF
:103C4000591C00F0AC809C427FF42BAD2A46E1B2B7
:103C50004046FEF787FB05990B88013303F01F03ED
:103C60000B808B889BB2002B3FF41BAD8B88013BF4
:103C70009BB28B8015E50C6814F4607F3FF4D0AEE6
:103C80000A4604321268964510D00C464500226858
:103C9000D8B2431CC2F3C212E918904201F5F06198
:103CA000BFF4BEAE58F821209645F0D108A9404691
:103CB000FFF70EFBCDE402F5F05304331B689E457D
:103CC000FFF4AEAE02F5F05293689E453FF6A8AE03
:103CD000ECE738F80730013303F01F0328F807300A
:103CE000C7E538F80620013202F01F0228F8062046
:103CF0009DE50B6813F4607F3FF492AE02F5F0543B
:103D0000224614342568536827680EEA05023B40B2
:103D10009A42CBD0400001230A680133C2F3C21299
:103D2000DBB20132C518934205F5F065BFF478AEF9
:103D3000266858F8257022680EEA06053A40954232
:103D4000EAD1B3E72046FCF73BFD4FF00063CBF828
:103D50000030A6E40720FCF733FD2BE60620FCF735
:103D60002FFD23E62A4621464046FEF7FBFABBF824
:103D70000030013303F01F03ABF80030BBF8043010
:103D80009BB2002B3FF48DACBBF80430013B9BB2DF
:103D9000ABF8043085E42046FCF712FD81E42A46A6
:103DA000214655E7438870B503F00F031A2505FB3C
:103DB0000303044616129E75638803F00F0305FB88
:103DC0000343DA75608800F00F0005FB00401830EF
:103DD00002F07CF9628823889BB292B283F01003D0
:103DE0009A420DD06388013303F01F036380A388D8
:103DF0009BB20F2B03D8A38801339BB2A38070BD65
:103E00002388013303F01F032380EBE7F0B58B7D9C
:103E1000554C05468DB00E462068002B4CD110F055
:103E2000005040F0868023680146504B0B441B0134
:103E30001B68C3F30363082B39D04B4A04E02368A3
:103E4000C3F30363082B32D01368484C481C03F0BB
:103E50007F03C1B201330C4499424FEA0414EED3FC
:103E60000FCE6C460FC496E8030084E80300404B75
:103E7000186810F020006F4616D105F5D8551A3590
:103E8000AB889BB2102B10D0FF238DF814300FCFCE
:103E900006AC0FC497E80300182284E80300284604
:103EA0000DEB0201FFF77EFF01200DB0F0BD3246A1
:103EB0002846FEF757FAF7E710F0005044D1236880
:103EC0002A4B03441B0104461A68110114D42649E5
:103ED00002E01A6812010FD40A68244B013002F084
:103EE0007F02C0B20132034490424FEA03130446FA
:103EF000EFD3204B4FF0FF341B68C3F30363082B51
:103F00002BD00FCEEE46AEE80F0096E803008EE809
:103F10000300174B186810F020006F46C4D105F558
:103F2000D8551A35AB889BB2102BBED08DF81440F3
:103F3000ADE7FCF7EFFB236803F07F030133834217
:103F400001463FF672AF8BE7FCF7E4FB236803F012
:103F50007F0301338342B3D8CBE728463246E1B230
:103F6000FEF700FA0120A0E7004002400824000408
:103F70002040024070400240F0B58B7D554C054614
:103F80008DB00E462068002B4CD110F0005040F050
:103F9000868023680146504B0B441B011B68C3F30A
:103FA0000363082B39D04B4A04E02368C3F303634F
:103FB000082B32D01368484C481C03F07F03C1B271
:103FC00001330C4499424FEA0414EED30FCE6C46F1
:103FD0000FC496E8030084E80300404B186810F013
:103FE00020006F4616D105F5D8551A35AB889BB21F
:103FF000102B10D0FF238DF814300FCF06AC0FC458
:1040000097E80300182284E8030028460DEB02011C
:10401000FFF7C8FE01200DB0F0BD32462846FEF77E
:10402000E7F8F7E710F0005044D123682A4B034427
:104030001B0104461A68110114D4264902E01A68CB
:1040400012010FD40A68244B013002F07F02C0B283
:104050000132034490424FEA03130446EFD3204B4E
:104060004FF0FF341B68C3F30363082B2BD00FCE34
:10407000EE46AEE80F0096E803008EE80300174B0B
:10408000186810F020006F46C4D105F5D8551A35D0
:10409000AB889BB2102BBED08DF81440ADE7FCF777
:1040A0005FFB236803F07F030133834201463FF641
:1040B00072AF8BE7FCF754FB236803F07F030133F7
:1040C0008342B3D8CBE728463246E1B2FEF790F8F8
:1040D0000120A0E700400A4008A4000420400A4054
:1040E00070400A402DE9F04F344D354B354A364C7F
:1040F0002A6042F2017C41F61A3B41F61C3E41F631
:104100001E3741F6D04641F6D24A41F6D44241F636
:10411000985141F69A5005F51C5941F69C581D607E
:104120000023AB82EB822B8325F80B3025F80E3071
:10413000EB53AB5325F80A30AB526B522B5225F898
:10414000083089F8003005F80C3004F51C59A382BA
:10415000E382238324F80B3024F80E30E35342F635
:104160000C1EA35342F6101742F6141624F80A3018
:10417000DFF868A0A35245F80E306352EB5123528A
:10418000C4F800A024F80830AB5589F8003044F892
:104190000E3004F80C30E351A3550C4B0C481C6056
:1041A00083B00122182100F01BF80A4A0A4B12685A
:1041B0000192019A1A6003B0BDE8F08F5810FF1FFA
:1041C0009462FF1F206500007039FF1F9862FF1F77
:1041D000A062FF1FD862FF1F9C62FF1F44650000A2
:1041E000322370B50446C3600D46084600211646CA
:1041F00000F000FB00234FF416714FF47A72257023
:104200006160A26084F82C30A37456B9012326742F
:1042100063740023A361E36123626362A3622046A7
:1042200070BD012163742846217400F0CFFAF0E7D5
:10423000416070478160704741617047816170479C
:1042400001627047416270478162704710B5044651
:1042500082B0007800F0C0FA344A94F82C3012682A
:104260000192003018BF0120019A23B9637C834278
:1042700013D002B010BD012B15D0022B37D0032B69
:104280002AD0062BF5D1237C834249D0A36A012290
:10429000A274002BEDD09847EBE70123226384F84A
:1042A0002C3002B010BD217C814230D0617C814233
:1042B000DFD1206BA168121A8A42DAD9E269A374AD
:1042C00002B19047236A03B19847A36A03B19847A4
:1042D000062384F82C30CCE7237C8342C9D1A36920
:1042E00003B19847002384F82C3002B010BD216B35
:1042F0006368521A9A4203D96369002BF1D1F1E73E
:10430000637C8342B5D1032384F82C30B1E7216B61
:10431000E368521A9A42E5D3022384F82C30A8E7C6
:10432000636A0022A274002BDBD1DBE7D862FF1F97
:1043300030B5044683B002252A4601A8054900F09D
:104340005BF823682A4601A95B682046984703B0BA
:1043500030BD00BFC0670000F0B507468BB0002A33
:1043600033D0012A08BF0A2251B3212400E0F4B25D
:10437000B1FBF2F502FB1511C8B2092900F13001B9
:1043800098BFC8B20AA988BF3730214488BFC0B2DD
:1043900001F8240C661E2946002DE8D133B1013CFA
:1043A000E4B20AAB23442D2203F8242C3B6801AA73
:1043B00011195B683846C4F1220298470BB0F0BD72
:1043C00030228DF825202124E8E70368C9B21B6854
:1043D00098470BB0F0BD00BF0029BABF49422D235A
:1043E00000230A22FFF7B8BF08B5FDF795FEFCF7DA
:1043F000FBFA01F027FAFAE701B441EA000313F0EF
:1044000003036FD1403A41D351F8043B40F8043BD9
:1044100051F8043B40F8043B51F8043B40F8043B9E
:1044200051F8043B40F8043B51F8043B40F8043B8E
:1044300051F8043B40F8043B51F8043B40F8043B7E
:1044400051F8043B40F8043B51F8043B40F8043B6E
:1044500051F8043B40F8043B51F8043B40F8043B5E
:1044600051F8043B40F8043B51F8043B40F8043B4E
:1044700051F8043B40F8043B51F8043B40F8043B3E
:1044800051F8043B40F8043B403ABDD2303211D3DE
:1044900051F8043B40F8043B51F8043B40F8043B1E
:1044A00051F8043B40F8043B51F8043B40F8043B0E
:1044B000103AEDD20C3205D351F8043B40F8043BDE
:1044C000043AF9D204320AD0D2071CBF11F8013BDA
:1044D00000F8013B03D30B7803704B78437001BCA9
:1044E000704700BF0C2A4AD310F0030311D0C3F168
:1044F0000403D21ADB071CBF11F8013B00F8013B93
:1045000007D311F8013B00F8013B11F8013B00F81B
:10451000013B11F003033FF475AF30B4043AC91AFC
:10452000C3F1040C51F8044B022B19D0032B0BD010
:10453000240A51F8043B1D0644EA050440F8044BE4
:104540001C46043AF4D216E0240E51F8043B1D0236
:1045500044EA050440F8044B1C46043AF4D20AE04D
:10456000240C51F8043B1D0444EA050440F8044BB4
:104570001C46043AF4D20432B1EB0C0130BC043ACC
:10458000A0D3013A11F8013B00F8013BF9D20B78B6
:1045900003704B7843708B78837001BC704700BF09
:1045A00008B5104C08E0236859050DD423681A0596
:1045B0000FD42368DB0411D423685803F3D500F02B
:1045C000E1FA23685905F1D500F00EF823681A05C1
:1045D000EFD500F009F82368DB04EDD500F004F80E
:1045E000EAE700BF3480044008B5FFF7D9FF00BFF9
:1045F000014B10221A80704700200540704700BF11
:10460000094908B50B6830B16A461844A2F5005252
:10461000904202D20860184608BD01F069FA0C23E6
:1046200003604FF0FF3008BD3407FF1F084A1378BE
:10463000802B01D0002070470649074B07480860CF
:10464000002119701378802BFCD00120704700BF27
:1046500003E007404480044001E0074000002822B6
:10466000094A1378012B01D00020704703F18043E1
:1046700003F5FC23602119701378802BFCD1034BC8
:10468000034A1A600120704703E007404480044059
:1046900000000602F0B44D1E2E46002400E0013456
:1046A000B0FBF2F302FB1300092800F130078ABFC8
:1046B0003730F8B2C0B206F8010F1846002BEED121
:1046C0000A1953704CB1107815F8016F2870013336
:1046D000E01A834202F80169F5DB0846F0BC704736
:1046E00010B4114B53F8302092F8804234B10123BA
:1046F00079B182F880305DF8044B704703EBC0035A
:104700005B681A6851B922F002021A605DF8044B26
:10471000704782F800315DF8044B704742F00302A5
:104720001A605DF8044B7047C46700001C4A02EB36
:10473000C00301295B6811D004291BD052F8300056
:10474000002280F8802229B1022920D0032922D01A
:104750001A6070474FF480721A60704752F8300048
:104760004FF4A27280F880121A601A6822F02002B8
:104770001A60704752F830104FF4A272012081F88D
:1047800080021A601A6842F020021A60704740F2F4
:1047900003121A6070474FF481721A60704700BFAD
:1047A000C467000030B4054B054D064C00221021B3
:1047B0001A602A602060196030BC704714D0034032
:1047C00004D0034000D00340704700BF3F2801D809
:1047D000FFF786BF704700BF3F2806D8044B53F849
:1047E000303093F80002C0B270470020704700BF1D
:1047F000C46700003F2801D8FFF798BF704700BF8B
:104800002DE9F843054672B6224F234B234A1B6815
:104810003C68126862B6520102D5322B88BF01345F
:10482000B5B3C3F52F3303F21F331D4EDFF8689085
:10483000DFF868809B084FF47A72A6FB031302FB33
:1048400004F404EB930472B6D9F800103A68D8F86F
:1048500000E062B6C1F52F3303F21F339B08A6FBBD
:1048600003031EF0806FC4EB93034FF47A7002D001
:10487000322988BF013200FB0233B3F57A7F04D3BB
:10488000013D05D004F57A74DDE700F0DBFFDAE7DF
:10489000BDE8F883D862FF1F18E000E004ED00E0F7
:1048A000176CC116F8B54F4B4F48DFF860C14F4C3D
:1048B0004F49DFF85CE14F4E4F4D504F4FF00062D3
:1048C0001A604FF080521A604FF000521A604FF099
:1048D00080421A604FF000421A60002228230260D2
:1048E0004EF6FF70CCF80000CEF8003023600EF5D5
:1048F000012E0B6033602B6006F500263B6005F54A
:104900000025A36207F500278B6204F5012401F559
:10491000012106F6E87605F6E87507F57F671031A0
:104920000EF1100E203433602B60CEF800303B6067
:104930000B602360324CBB618B6109212160A7F5BC
:10494000002704F58054203F08343A602060BB60A3
:10495000E36047F8041C04F5FD2407F5FE2704373F
:1049600004F2FC7422603860A360FB6044F8041C0D
:10497000083404F6FC74C7F8FC2F2060A4F5E12489
:10498000A4F2DC7433602B60C7F8F81F21681D485F
:1049900041F40071216001681B4C0EF57F4E0EF151
:1049A000E80E07F5883706F5803605F5803541F0C5
:1049B00000710160CEF8002047F6FF7108223960CF
:1049C00033602B60226000F0DFFFFFF7FDFE142054
:1049D000FFF716FF00F010FD4FF48C70BDE8F840B3
:1049E000FFF70EBF04E100E00480034014800340A1
:1049F0001C800340248003402C800340348003400B
:104A0000008003400480044000900C400880034074
:104A10000C800340431E032B14D872B60A4951F888
:104A2000230068B170B4094C058834F81320466837
:104A300041F82360521B24F8132062B670BC704703
:104A400062B67047002070473463FF1F3C64FF1F4D
:104A5000013803280BD872B6074B53F8203043B106
:104A600000205B680130002BFBD162B6704700204C
:104A700070471846F9E700BF8863FF1FF0B472B6AD
:104A80001A491B4E012311F8014B194F9A002407B4
:104A900042F0010505D556F8324064B156F835208C
:104AA000BAB10133052BEED162B6124B00221A7057
:104AB000F0BC00F037BD0F4C0F4D217807EB4313CE
:104AC000083001395860217047F8325062B6F0BCA6
:104AD0007047084A0949137807EBC5040830013BC1
:104AE0006060137047F8351062B6F0E7EC690000BB
:104AF0000000FF1FB163FF1F88004000C800400096
:104B0000431E032B1DD81B4A400140F0100030B457
:104B1000104472B6184CE25C032A1BD8DFE802F09E
:104B20000212151703220D88E25410F0080F14BF6B
:104B3000C823882343EA054308314160036062B615
:104B400030BC704708300222EDE70522EBE7083061
:104B50000422E8E7094A52F8230038B1084A52F81B
:104B60002300416042F8231062B6E9E742F82310BF
:104B7000034AF7E70000FF1FC063FF1F8863FF1FA2
:104B80009863FF1F2DE9F04FDFF814B3DFF814A38B
:104B900087B044E0AD4F4FEA930807EBC809013EE8
:104BA000D9F8042003F00803F6B2A2F1080003F0DC
:104BB000FF04002B40F0038157F838301B0C99B2EA
:104BC00022F8081C002B00F0F180A14B22F8064CC3
:104BD00042F8044C53F82620002A00F06C819D4DC9
:104BE00055F8263058609C4C45F8260034F81630AD
:104BF000194424F8161000F075FC002800F05481C8
:104C0000964A974B19F0080F00F1080018BF134699
:104C1000C9F8040047F8383008238BF800309BF8B7
:104C20000040E4B260071BD58E4B1B78ABB18E49B8
:104C30000A7802F0FF032AB1013BDBB20B70002BB4
:104C400000F0B58389490A7802F0FF032AB1013BDD
:104C5000DBB20B70002B00F0F68004238BF80030E1
:104C600004F0080303F0FF02002B00F0D5809AF84F
:104C70000030DBB21E098DD19C08744F57F83420E8
:104C800007EBC401C2F38302013A49680C2A7ED8BB
:104C9000DFE802F081817D7D7D7D7D7D427D7D7DB2
:104CA00007000868724B734D01936C4B4A68724E53
:104CB00047F8343081B240F281646D4B6A602860FD
:104CC00000220120A1423A611A60BA61307000F2FC
:104CD000F680B1F5D06F80F0E882B1F5817F00F009
:104CE000D38200F2D881802900F04D81822940F0E2
:104CF0009282A988614B01F07F01042900F28C8225
:104D00005F4C89000B44227062701A78930740F15F
:104D10003883207002203AE1554B01931A6862B340
:104D2000584B5949544E18880C7896F800E04028A2
:104D3000054684F0010C28BF402544F00204BEF172
:104D4000000F81F800C0A0EB050007EBC40C0CBFFE
:104D50008821C82180B28EF0010E41EA0541CCF8CD
:104D60000420188086F800E02A4447F8341010B96F
:104D7000402D18BF0022019B1A603E4B1A88B2F5E5
:104D8000A06F04D100219A785970404B1A70404AA4
:104D90000123137040E7374A158842F2210085420B
:104DA00000F052812D4A47F83420F0E72B4A2C4B73
:104DB00019F0080F18BF134647F838302CE700F0F9
:104DC000B1FB344A344952F82630002B00F02D81D3
:104DD00058688C5D42F8260003F10802C9F80420E7
:104DE000032C05D8DFE804F0120F150204228A55BF
:104DF0001A8819F0080F0CBF8823C82343EA02431E
:104E000047F8383008E702228A55F1E703228A552D
:104E1000EEE705228A55EBE7E00700F178812106ED
:104E200000F1A281A20706D51C4A1D491378022071
:104E3000DBB213700870E30602D5194B10221A700A
:104E400007B0BDE8F08F00F0D9FC06E70000FF1FB7
:104E50003463FF1FE062FF1F3C64FF1FC800400077
:104E600088004000BC63FF1F4563FF1FC463FF1F32
:104E7000DC62FF1FA863FF1F4463FF1FC0200740C1
:104E8000B463FF1FF062FF1FB063FF1F982007404D
:104E9000942007408863FF1FC063FF1F88200740DE
:104EA0008020074090200740B74A47F83800137821
:104EB00001331370B0E643F82600B44D93E642F296
:104EC0002104A14200F0AD8000F20E81B1F5086F1F
:104ED00000F05481B1F5106F40F09D81AC4AA97883
:104EE0001170AC4D042402E00134142C0CD057F89E
:104EF00034301906F8D505EBC40301345868083876
:104F000000F010FB142CF2D1A349A44BA44A029147
:104F1000A449A54C9D4D039405964FF00009884681
:104F20001C4616460495206828B1456800F0FAFA38
:104F30002846002DF9D100232360049B30681A46CF
:104F4000002342F8293028B1456800F0EBFA2846E2
:104F5000002DF9D100223260029A98F800301146F3
:104F6000002241F8042B039A0291023B4FF000010A
:104F700022F81910032B00F2B481DFE813F0E201EC
:104F8000AE01E201AE01894C022022706270EA8813
:104F9000824280F00D8286490D78402A45F0020E4B
:104FA000944607EBCE0028BF4FF0400C04EB0C03F7
:104FB00044600293CCEB02004FEA0C484FF0010929
:104FC0000022C82444EA080385F0010447F83E3073
:104FD00032700C70DFF8BCE1764BDFF8D48100282A
:104FE00040F02081BCF1400F1BD144F0020407EBDC
:104FF000C403029FDFF89CE15F60002A40F0278134
:10500000020442F0880286F800900D7007444EF8C2
:1050100034203B46402804D10020674A0199108083
:105020000B60664A01231370B1E68B5D032B00F21F
:10503000248101A252F823F0194C0000194C000001
:105040005D51000063510000928862B95C4ACD1D39
:1050500011F8013B02F8013F8D42F9D1594A12681B
:10506000862A00F0C9805249524E0878327840F0C2
:10507000020580F00100087007EBC501002A4FF01F
:105080000000486082F001020CBF8821C82147F867
:105090003510327086E640F20232914240F0B08024
:1050A000A98801F07F01042900F2B5806A88002AEE
:1050B00040F0B180444C89000C448146217841F095
:1050C000020121700020029080468446044638493F
:1050D0000D7845F0020E07EBCE03B9F1000F5C60CE
:1050E0000CBF8824C8246DE742F22124A14240F07D
:1050F0008E80A988002940F04281344B344A354CD7
:105100001B68AD78136081460A462570DAE72B49A3
:10511000204B3148264EDFF8B0C0304DDFF8D4E0E8
:105120002F4F02240C702F4C18605C6098602E4842
:10513000D8601A619A610D2332702C4C8CF80030C3
:105140002B4EFF232B7001209F258EF800303A70E4
:1051500033702570087007B0BDE8F08F00238B55C1
:105160005AE501238B5557E51749224B80220D2024
:1051700008701A70A2077FF55EAE55E6044A0B4C24
:105180001278227003E700BFB163FF1FE062FF1FC8
:10519000BC63FF1F0000FF1F9863FF1F3463FF1FE6
:1051A0008863FF1FC063FF1F3C64FF1FB463FF1FC2
:1051B000B063FF1F4463FF1FF062FF1F942007408E
:1051C0004364FF1F4464FF1FC0200740D862FF1FD5
:1051D0004C64FF1FD463FF1F8800400088200740F5
:1051E00098200740F462FF1F4863FF1F8420074098
:1051F0008C20074080200740754A0F21117032E74C
:10520000B1F5A06F07D100224FF001095AE742F231
:1052100021329142F7D06F4B0F221A706E4A012350
:105220001370B4E540287FF6E0AE44F002040EEBC4
:10523000C401029E4E60AAB183F80090674A88F8C4
:1052400000503346403840334EF83420E5E6029BA8
:1052500086F80090020442F0C8020D7003444EF834
:105260003420D7E683F80090029B5D4A88F800500E
:10527000403840334EF83420CFE619F0080F0CBF09
:10528000022303238B55C7E4A98801F07F01042979
:10529000C1D86A88002ABED14E4C89000C44814690
:1052A000217821F0020121700CE74E4A5468002C4D
:1052B000B1D06888B5F804E003E00C325468002CE3
:1052C000A9D013888342F8D153887345F5D1000AD9
:1052D00003280CBF2078108959E64FF0010388F8A5
:1052E000003009F10109B9F1040F04F1040406F1D9
:1052F000040608F101087FF416AE3B4B059E3B4DBA
:10530000DFF8F080002018704FF0010918F8013B19
:1053100005F8043B1A0719D44FEA890444F0020245
:1053200044F00304002347F8323047F83430304B60
:105330009D4209F10109E9D196F8009089F0010236
:10534000C0E64FF0000388F80030CAE700F0CAF862
:1053500018B307EB49134FEA890408305860204B13
:1053600047F8343000F0BEF868B144F0010307EBB1
:10537000C30208305060194A47F83320CEE781460F
:10538000A0E6022003E6184B44F001021B7847F820
:105390003200154A01331370C0E7134B124A1B78D1
:1053A0004FEA8904013347F834001370DAE700BE8E
:1053B0004028844628BF4FF0400C04EB0C03CCEB94
:1053C00000004FEA0C48029300224FF001097EE6EC
:1053D0004563FF1FC020074094200740C8004000DD
:1053E00088004000F0690000B163FF1FC42007403F
:1053F000D4200740EC690000F8B500F037FB00232B
:1054000024491A4601EBC30041F833200133142B21
:1054100042604FF000041F48F4D11F491F4A0B6837
:10542000DFF890C01E4E1F4F1F4DDFF88CE043F495
:1054300080230B60136843F04073136003238CF8E0
:10544000003001F52831A02333707C3102F5C922E8
:10545000C0F307233B701032C0F307430B70000EFC
:10546000FF2328708EF80030104D0CF8BC3C10481B
:105470001370012306F8AC3C81F8504070264FF4BD
:105480000014102107F8183C2E70046082F8F81000
:10549000F8BD00BF0000FF1F3480044000D800406A
:1054A000402107409C200740B420074035E400E03D
:1054B00004E100E0442107408020074000F0A2B84A
:1054C00000F07AB800F054B800F08EB800F06AB975
:1054D00000F044B90846114600F0B0B8084600F0A4
:1054E00031B900BF72B60D480268B2FA82F30B2BD5
:1054F00010DC4FF00041D94022EA0102026062B69E
:10550000074803EBC303DB00C2180021C15010465B
:105510005160704762B60020704700BF4807FF1F08
:10552000D003FF1F0D4B0E4AC31AA2FB03231B0916
:105530000B2B0CD80B4A127852B972B60A484FF0AE
:105540000041026821FA03F31A43026062B6704711
:10555000064A1278002AF0D0FFF790BAD003FF1F56
:10556000398EE338B163FF1F4807FF1FBC63FF1F7D
:1055700038B50F4D286878B143880288C1180133C7
:1055800093420C7A02D24380204638BDFFF7CAFF0F
:10559000002320462B6038BD064B1B782BB103201F
:1055A000FFF738FA28600028E6D14FF0FF3038BD09
:1055B000D063FF1FBC63FF1F10B5094C206818B1F2
:1055C00043881844007A10BD064B1B782BB103208A
:1055D000FFF720FA20600028F2D14FF0FF3010BD15
:1055E000D063FF1FBC63FF1F044B054A1B689088F4
:1055F0001BB11A885B88D31A18447047D063FF1F09
:105600003C64FF1F0B4B1B789BB110B50A4C206804
:1056100048B1FFF787FF002303202360FFF7FAF963
:1056200030B1FFF77FFF0320FFF7F4F90028F8D12E
:1056300010BD7047BC63FF1FD063FF1F2DE9F04F03
:10564000DFF8F89083B0012289F80020019169B356
:10565000DFF8EC80354F019E8346D8F80000B0B3E8
:10566000334D4488C4F14001B14228BF314604EBB8
:10567000010E00221FFA8EFE2A70761AA0F802E0B0
:1056800000F1080251B1013C224459441BF8014B7E
:1056900002F8014F8B45F9D1B0F802E0BEF13F0F9F
:1056A0000BD8244A05211170002ED6D10198002371
:1056B00089F8003003B0BDE8F08F40220280014637
:1056C0000420FFF71DFA0022C8F80020E9E73A7825
:1056D00022B3194C164D4FF0010A07E0013C16D0D9
:1056E0002A78A2B900F0AEF83A78BAB10420FFF7F0
:1056F000AFF90728F2D889F800A0FFF7F3FEC8F841
:1057000000000028ADD10D4B013C1870E8D10123F9
:105710004FF0FF302B7003B0BDE8F08F00234FF047
:10572000FF3089F8003003B0BDE8F08FBC63FF1F85
:10573000CC63FF1FC463FF1F21480100C563FF1F27
:10574000C863FF1F00B583B002AB012103F8010D50
:105750001846FFF773FF03B05DF804FB38B50E4D34
:105760000E4C28680123237028B140880023237041
:10577000C0F1400038BD0A4B1B7813B900202070DF
:1057800038BD0420FFF764F90728F7D8FFF7AAFE11
:1057900028600028E9D1F1E7C863FF1FC563FF1F38
:1057A000BC63FF1FF8B5114B1B788BB1104E114D28
:1057B000346801272F7064B10F4A6388002717707F
:1057C000214623800420FFF79BF9376000232B70CC
:1057D000F8BDFFF787FE084B28B1014604201C7076
:1057E000FFF78EF9F2E71F70F0E700BFBC63FF1F01
:1057F000C863FF1FC563FF1FC463FF1F38B50E4B8F
:105800001B7873B90D4C216861B103F0FF054B881B
:105810000B800420FFF774F9256038BD084B012286
:105820001A7038BDFFF75EFE0028F7D00146BDE8CC
:1058300038400420FFF764B9C563FF1FC863FF1F2A
:10584000C463FF1F2DE9F843314E337893B1314FD4
:105850003A787AB90122D9073A7036D49A0719D41E
:1058600000225B073A7005D52B4B1A6812B1EFF393
:1058700005820AB1BDE8F883EFF3108172B61868AB
:1058800018B1264C2278002A2ED00029F2D162B617
:10589000BDE8F883DFF8908098F80020002ADFD078
:1058A000DFF88890002405E0013498F80030E4B275
:1058B000A34212D959F824502B6828461B699847EF
:1058C0000028F1D02B699847EEE7FFF78DFEC8B9A5
:1058D000134B1B781BB93378C0E73378C0E73378B4
:1058E00003F0FE033370B9E745691D60012323709F
:1058F0005DB1AA6101B962B6002545778368984712
:105900002570B7E700F0B0F8E2E7064B1D60F1E75D
:105910004C07FF1FD563FF1FE463FF1FE863FF1FF2
:105920004F07FF1FE063FF1F0464FF1FEC63FF1FAF
:1059300070B5EFF3108272B60C4C206880B10C4E3B
:1059400000254369236073B19D6102B962B6457752
:1059500083689847EFF3108272B620680028F0D170
:1059600002B962B670BD3360EFE700BFD863FF1FB6
:10597000DC63FF1FFFF7DCBF024A136801331360CB
:10598000704700BFD862FF1F30B42948294A2A4B0C
:105990002A4D6024E121047011701B78284C082BDB
:1059A00030D00A2B2748284937D00C2B0CBF352282
:1059B0005D2212232A60236002600B60234B24497E
:1059C0001B78244ABBB101230B601360224B23498F
:1059D0001B78234A012B26D9042B0FD9082B1ED95B
:1059E000102B94BF862387230B6013601D4B01226D
:1059F0001A7030BC70470B601360E7E784230B60BC
:105A00001360F3E700F58E200F490830212213239D
:105A10002A60236002600B60D0E73922F7E7852314
:105A20000B601360E2E780230B601360DEE700BFCA
:105A300000400740014007404D07FF1F08B00340EA
:105A40000CB0034008B00B400CB00B400664FF1FC5
:105A500020B0034020B00B404E07FF1F24B003408E
:105A600024B00B400564FF1F704700BF10B584B021
:105A700072B6FEF7DBFD184A184B19491160702207
:105A800080211A701A46197013781B06FCD5154B25
:105A90001C68FEF7E5FD62B6134B9C429CBF04EB0D
:105AA000840464002046114C01A90A22FEF7F2FD8D
:105AB00001A92046002311F8012B01333AB10A2B2A
:105AC00020F8022FF7D11623237004B010BD5B001D
:105AD000DBB2237004B010BD04000240000002409D
